-------------
Stopping Bitcoind if it is already running
-------------
Done
-------------
Updating Bitcoind configuration
-------------
Done
-------------
Refreshing & Restarting Bitcoind
-------------
Bitcoin Core starting
Waiting for 5 secs for Bitcoin Demon to Initialize...
-------------
Generating User's Priv-Pub-Addr
-------------
Private Key: cUWxCMBj8gpUnsEkHrVcmKpiYM86o3nE2B1pUogvbhrvZwEMpzsT
Public Key: 03fe60f49d2b9346814cb1b48ecbdb7882678491c2ded756e453e182e1e6c07b10
Address: bcrt1qf2qspjf8djyc8laaxdwd78ytc0sqxgcew76xd2
-------------
Generating Ledger's Priv-Pub-Addr
-------------
Private Key: cSwZZTBDKy5o9nSqDtFGiTfQjAA2mkk5WXZWXMCJkFs4R9MuYhbk
Public Key: 021da1d9b271dc48a81bd3047476404e996d183920c09d36e8388be5ec44e7d1b1
Address: bcrt1qe5wjndsz9tjj57k489v7xprt75evkeqyewll8n
-------------
Generating blocks to bootstrap Bitcoin RegTest Blockchain
-------------
Done
-------------
Deposit Tx Redeem Script
-------------
21021da1d9b271dc48a81bd3047476404e996d183920c09d36e8388be5ec44e7d1b12103fe60f49d2b9346814cb1b48ecbdb7882678491c2ded756e453e182e1e6c07b1000547a547a527152ae
-------------
Checking Deposit Tx Redeem Script
-------------
{
  "asm": "021da1d9b271dc48a81bd3047476404e996d183920c09d36e8388be5ec44e7d1b1 03fe60f49d2b9346814cb1b48ecbdb7882678491c2ded756e453e182e1e6c07b10 0 4 OP_ROLL 4 OP_ROLL 2 OP_2ROT 2 OP_CHECKMULTISIG",
  "desc": "raw(21021da1d9b271dc48a81bd3047476404e996d183920c09d36e8388be5ec44e7d1b12103fe60f49d2b9346814cb1b48ecbdb7882678491c2ded756e453e182e1e6c07b1000547a547a527152ae)#jwramna4",
  "type": "nonstandard",
  "p2sh": "2NEV8LyjEtittcybFMLgtLQ8iyPpgWkggY4",
  "segwit": {
    "asm": "0 b3063a2812cc04a4ec571d2e48f6bc3d67f5d9fe1290fe25b33a0bbc9a50091d",
    "desc": "wsh(raw(21021da1d9b271dc48a81bd3047476404e996d183920c09d36e8388be5ec44e7d1b12103fe60f49d2b9346814cb1b48ecbdb7882678491c2ded756e453e182e1e6c07b1000547a547a527152ae))#wxazv2hq",
    "hex": "0020b3063a2812cc04a4ec571d2e48f6bc3d67f5d9fe1290fe25b33a0bbc9a50091d",
    "address": "bcrt1qkvrr52qjesz2fmzhr5hy3a4u84nltk07z2g0ufdn8g9mexjspywsrqhtmt",
    "type": "witness_v0_scripthash",
    "p2sh-segwit": "2NEZPVaBA1QvpZAQeqpbx7Hn6VXj9EWrCEQ"
  }
}
-------------
Deposit Tx - Script to Address
-------------
bcrt1qkvrr52qjesz2fmzhr5hy3a4u84nltk07z2g0ufdn8g9mexjspywsrqhtmt
-------------
Creating Unsigned Deposit Tx
-------------
Done
-------------
Unsigned Deposit Tx
-------------
0200000001e9105042d931b9cca2879d2cbd3e2e10362fbf5252326fc11be5fd3028f911a30000000000fdffffff01606b042a01000000220020b3063a2812cc04a4ec571d2e48f6bc3d67f5d9fe1290fe25b33a0bbc9a50091d00000000
-------------
Checking Unsigned Deposit Tx
-------------
{
  "txid": "c54a1ba579a848e2ee4b247806669a652f8e1d48ed1d7be4b924ba42da6a2ba6",
  "hash": "c54a1ba579a848e2ee4b247806669a652f8e1d48ed1d7be4b924ba42da6a2ba6",
  "version": 2,
  "size": 94,
  "vsize": 94,
  "weight": 376,
  "locktime": 0,
  "vin": [
    {
      "txid": "a311f92830fde51bc16f325252bf2f36102e3ebd2c9d87a2ccb931d9425010e9",
      "vout": 0,
      "scriptSig": {
        "asm": "",
        "hex": ""
      },
      "sequence": 4294967293
    }
  ],
  "vout": [
    {
      "value": 49.99900000,
      "n": 0,
      "scriptPubKey": {
        "asm": "0 b3063a2812cc04a4ec571d2e48f6bc3d67f5d9fe1290fe25b33a0bbc9a50091d",
        "desc": "addr(bcrt1qkvrr52qjesz2fmzhr5hy3a4u84nltk07z2g0ufdn8g9mexjspywsrqhtmt)#pe0h532x",
        "hex": "0020b3063a2812cc04a4ec571d2e48f6bc3d67f5d9fe1290fe25b33a0bbc9a50091d",
        "address": "bcrt1qkvrr52qjesz2fmzhr5hy3a4u84nltk07z2g0ufdn8g9mexjspywsrqhtmt",
        "type": "witness_v0_scripthash"
      }
    }
  ]
}
-------------
Signing the Deposit Tx
-------------
Done
-------------
Signed Deposit Tx
-------------
02000000000101e9105042d931b9cca2879d2cbd3e2e10362fbf5252326fc11be5fd3028f911a30000000000fdffffff01606b042a01000000220020b3063a2812cc04a4ec571d2e48f6bc3d67f5d9fe1290fe25b33a0bbc9a50091d0247304402200323b5e380ad081c6c13217836e49321d6c25a734c500be6ceb1097df071e98f022027351b298b5b34140cae56497c93dd03550bf139ec84a248387b41e495821e1e012103fe60f49d2b9346814cb1b48ecbdb7882678491c2ded756e453e182e1e6c07b1000000000
-------------
Checking Signed Deposit Tx
-------------
{
  "txid": "c54a1ba579a848e2ee4b247806669a652f8e1d48ed1d7be4b924ba42da6a2ba6",
  "hash": "24078ce6462d51666c50858c10f8be738e1594468b2e60680cb5d5881fe7b29b",
  "version": 2,
  "size": 203,
  "vsize": 122,
  "weight": 485,
  "locktime": 0,
  "vin": [
    {
      "txid": "a311f92830fde51bc16f325252bf2f36102e3ebd2c9d87a2ccb931d9425010e9",
      "vout": 0,
      "scriptSig": {
        "asm": "",
        "hex": ""
      },
      "txinwitness": [
        "304402200323b5e380ad081c6c13217836e49321d6c25a734c500be6ceb1097df071e98f022027351b298b5b34140cae56497c93dd03550bf139ec84a248387b41e495821e1e01",
        "03fe60f49d2b9346814cb1b48ecbdb7882678491c2ded756e453e182e1e6c07b10"
      ],
      "sequence": 4294967293
    }
  ],
  "vout": [
    {
      "value": 49.99900000,
      "n": 0,
      "scriptPubKey": {
        "asm": "0 b3063a2812cc04a4ec571d2e48f6bc3d67f5d9fe1290fe25b33a0bbc9a50091d",
        "desc": "addr(bcrt1qkvrr52qjesz2fmzhr5hy3a4u84nltk07z2g0ufdn8g9mexjspywsrqhtmt)#pe0h532x",
        "hex": "0020b3063a2812cc04a4ec571d2e48f6bc3d67f5d9fe1290fe25b33a0bbc9a50091d",
        "address": "bcrt1qkvrr52qjesz2fmzhr5hy3a4u84nltk07z2g0ufdn8g9mexjspywsrqhtmt",
        "type": "witness_v0_scripthash"
      }
    }
  ]
}
-------------
Provsional Tx Redeem Script
-------------
Setting Option 1 (User Private-Key Only) Delay to 1000
Encoded bytes (hex): e803
Setting Option 2 (Ledger Private-Key Only) Delay to 5000
Encoded bytes (hex): 8813
Hex:
02881302e80321021da1d9b271dc48a81bd3047476404e996d183920c09d36e8388be5ec44e7d1b12103fe60f49d2b9346814cb1b48ecbdb7882678491c2ded756e453e182e1e6c07b1054795287637b757b757b7500547a547a527152ae67547a6375777b7cadb2755167777b757b7cadb275516868
-------------
Checking Provisional Tx Redeem Script
-------------
{
  "asm": "5000 1000 021da1d9b271dc48a81bd3047476404e996d183920c09d36e8388be5ec44e7d1b1 03fe60f49d2b9346814cb1b48ecbdb7882678491c2ded756e453e182e1e6c07b10 4 OP_PICK 2 OP_EQUAL OP_IF OP_ROT OP_DROP OP_ROT OP_DROP OP_ROT OP_DROP 0 4 OP_ROLL 4 OP_ROLL 2 OP_2ROT 2 OP_CHECKMULTISIG OP_ELSE 4 OP_ROLL OP_IF OP_DROP OP_NIP OP_ROT OP_SWAP OP_CHECKSIGVERIFY OP_CHECKSEQUENCEVERIFY OP_DROP 1 OP_ELSE OP_NIP OP_ROT OP_DROP OP_ROT OP_SWAP OP_CHECKSIGVERIFY OP_CHECKSEQUENCEVERIFY OP_DROP 1 OP_ENDIF OP_ENDIF",
  "desc": "raw(02881302e80321021da1d9b271dc48a81bd3047476404e996d183920c09d36e8388be5ec44e7d1b12103fe60f49d2b9346814cb1b48ecbdb7882678491c2ded756e453e182e1e6c07b1054795287637b757b757b7500547a547a527152ae67547a6375777b7cadb2755167777b757b7cadb275516868)#m943ncey",
  "type": "nonstandard",
  "p2sh": "2MwbtY3emXwUCR47rkanCfEEBdpbGiz5u5k",
  "segwit": {
    "asm": "0 541ed01418b0e53832fe512f2500221ef3b91c56b95c9fd252f064c4aea1dd59",
    "desc": "wsh(raw(02881302e80321021da1d9b271dc48a81bd3047476404e996d183920c09d36e8388be5ec44e7d1b12103fe60f49d2b9346814cb1b48ecbdb7882678491c2ded756e453e182e1e6c07b1054795287637b757b757b7500547a547a527152ae67547a6375777b7cadb2755167777b757b7cadb275516868))#2462v0ea",
    "hex": "0020541ed01418b0e53832fe512f2500221ef3b91c56b95c9fd252f064c4aea1dd59",
    "address": "bcrt1q2s0dq9qckrjnsvh72yhj2qpzrmemj8zkh9wfl5jj7pjvft4pm4vszdqu5h",
    "type": "witness_v0_scripthash",
    "p2sh-segwit": "2NBsdkd3s6aS2Ld9wmg9g2GUNLBqgsAym8N"
  }
}
-------------
Provisional Tx - Script to Address
-------------
bcrt1q2s0dq9qckrjnsvh72yhj2qpzrmemj8zkh9wfl5jj7pjvft4pm4vszdqu5h
-------------
Creating Unsigned Provisional Tx
-------------
0200000001a62b6ada42ba24b9e47b1ded481d8e2f659a660678244beee248a879a51b4ac50000000000fdffffff01c0e4022a01000000220020541ed01418b0e53832fe512f2500221ef3b91c56b95c9fd252f064c4aea1dd5900000000
-------------
Checking Unsigned Prov Tx Created by User
-------------
{
  "txid": "dce13878ee7af69bd6e3b5e2e2a00a72c2c4604b8bccadbb1e265821b04acd74",
  "hash": "dce13878ee7af69bd6e3b5e2e2a00a72c2c4604b8bccadbb1e265821b04acd74",
  "version": 2,
  "size": 94,
  "vsize": 94,
  "weight": 376,
  "locktime": 0,
  "vin": [
    {
      "txid": "c54a1ba579a848e2ee4b247806669a652f8e1d48ed1d7be4b924ba42da6a2ba6",
      "vout": 0,
      "scriptSig": {
        "asm": "",
        "hex": ""
      },
      "sequence": 4294967293
    }
  ],
  "vout": [
    {
      "value": 49.99800000,
      "n": 0,
      "scriptPubKey": {
        "asm": "0 541ed01418b0e53832fe512f2500221ef3b91c56b95c9fd252f064c4aea1dd59",
        "desc": "addr(bcrt1q2s0dq9qckrjnsvh72yhj2qpzrmemj8zkh9wfl5jj7pjvft4pm4vszdqu5h)#qswhcwsa",
        "hex": "0020541ed01418b0e53832fe512f2500221ef3b91c56b95c9fd252f064c4aea1dd59",
        "address": "bcrt1q2s0dq9qckrjnsvh72yhj2qpzrmemj8zkh9wfl5jj7pjvft4pm4vszdqu5h",
        "type": "witness_v0_scripthash"
      }
    }
  ]
}
-------------
Simulating the transfer of Unsigned Provisional Tx copy
to Ledger!
-------------
[U] --> Unsigned Provisional Tx --> [L]
-------------
Ledger signs the Unsigned Provisional Tx
with his Private Key
-------------
Original Tx:
{
    "ins": [
        {
            "tx_hash": "c54a1ba579a848e2ee4b247806669a652f8e1d48ed1d7be4b924ba42da6a2ba6",
            "tx_pos": 0,
            "script": "",
            "sequence": 4294967293,
            "value": 4999900000
        }
    ],
    "outs": [
        {
            "value": 4999800000,
            "script": "0020541ed01418b0e53832fe512f2500221ef3b91c56b95c9fd252f064c4aea1dd59"
        }
    ],
    "version": 2,
    "locktime": 0
}
Signature:
3044022025df99b16c7c1c4ea1a1c28edbc0ccd2b9161aca7c3392c5a28e70647d4ccdad02207c28955df71229cd7816406f51fdc1667c85c2ee6e66c27957e21276427ad48901
-------------
ProvTx - Ledger's Signature
-------------
3044022025df99b16c7c1c4ea1a1c28edbc0ccd2b9161aca7c3392c5a28e70647d4ccdad02207c28955df71229cd7816406f51fdc1667c85c2ee6e66c27957e21276427ad48901
-------------
Simulating the transfer of Partially Signed Provisional Tx
to User!
-------------
[L] --> Partially Signed Provisional Tx --> [U]
-------------
User signs the Unsigned Provisional Tx
with his Private Key
-------------
Original Tx:
{
    "ins": [
        {
            "tx_hash": "c54a1ba579a848e2ee4b247806669a652f8e1d48ed1d7be4b924ba42da6a2ba6",
            "tx_pos": 0,
            "script": "",
            "sequence": 4294967293,
            "value": 4999900000
        }
    ],
    "outs": [
        {
            "value": 4999800000,
            "script": "0020541ed01418b0e53832fe512f2500221ef3b91c56b95c9fd252f064c4aea1dd59"
        }
    ],
    "version": 2,
    "locktime": 0
}
Signature:
304402203edae9d078b06d430b911268239e382e6487837feb49aecf8a06eab33e2e374d02207052058ada6929d1a186e68007cd411e3161a2e3109455fdf167004ed91df42c01
-------------
ProvTx - User Signature
-------------
304402203edae9d078b06d430b911268239e382e6487837feb49aecf8a06eab33e2e374d02207052058ada6929d1a186e68007cd411e3161a2e3109455fdf167004ed91df42c01
-------------
Simulating the transfer of Partially Signed Provisional Tx copy
to Ledger!
-------------
[U] --> Partially Signed Provisional Tx --> [L]
-------------
User signs & broadcasts the Deposit Tx
after receiving the Partially signed Provisional Tx
-------------
Done
-------------
Generating Block to confirm the Deposit Tx
-------------
Deposit Tx Block: 7f8d5062d8b0fc9cfb3652e8cb43501bf2da2501b82604ba1e5c838bf52630c0
-------------
Confirmed Deposit Tx
-------------
{
  "in_active_chain": true,
  "txid": "c54a1ba579a848e2ee4b247806669a652f8e1d48ed1d7be4b924ba42da6a2ba6",
  "hash": "24078ce6462d51666c50858c10f8be738e1594468b2e60680cb5d5881fe7b29b",
  "version": 2,
  "size": 203,
  "vsize": 122,
  "weight": 485,
  "locktime": 0,
  "vin": [
    {
      "txid": "a311f92830fde51bc16f325252bf2f36102e3ebd2c9d87a2ccb931d9425010e9",
      "vout": 0,
      "scriptSig": {
        "asm": "",
        "hex": ""
      },
      "txinwitness": [
        "304402200323b5e380ad081c6c13217836e49321d6c25a734c500be6ceb1097df071e98f022027351b298b5b34140cae56497c93dd03550bf139ec84a248387b41e495821e1e01",
        "03fe60f49d2b9346814cb1b48ecbdb7882678491c2ded756e453e182e1e6c07b10"
      ],
      "sequence": 4294967293
    }
  ],
  "vout": [
    {
      "value": 49.99900000,
      "n": 0,
      "scriptPubKey": {
        "asm": "0 b3063a2812cc04a4ec571d2e48f6bc3d67f5d9fe1290fe25b33a0bbc9a50091d",
        "desc": "addr(bcrt1qkvrr52qjesz2fmzhr5hy3a4u84nltk07z2g0ufdn8g9mexjspywsrqhtmt)#pe0h532x",
        "hex": "0020b3063a2812cc04a4ec571d2e48f6bc3d67f5d9fe1290fe25b33a0bbc9a50091d",
        "address": "bcrt1qkvrr52qjesz2fmzhr5hy3a4u84nltk07z2g0ufdn8g9mexjspywsrqhtmt",
        "type": "witness_v0_scripthash"
      }
    }
  ],
  "hex": "02000000000101e9105042d931b9cca2879d2cbd3e2e10362fbf5252326fc11be5fd3028f911a30000000000fdffffff01606b042a01000000220020b3063a2812cc04a4ec571d2e48f6bc3d67f5d9fe1290fe25b33a0bbc9a50091d0247304402200323b5e380ad081c6c13217836e49321d6c25a734c500be6ceb1097df071e98f022027351b298b5b34140cae56497c93dd03550bf139ec84a248387b41e495821e1e012103fe60f49d2b9346814cb1b48ecbdb7882678491c2ded756e453e182e1e6c07b1000000000",
  "blockhash": "7f8d5062d8b0fc9cfb3652e8cb43501bf2da2501b82604ba1e5c838bf52630c0",
  "confirmations": 1,
  "time": 1715371893,
  "blocktime": 1715371893
}
-------------
***Smart Vault Setup Complete!***
-------------
User is now assured of his
Bitcoin's safety and security
as his Bitcoin is now in Joint Custody and
rest everything is managed using the
Partially Signed Provisional Transactions
with User and Ledger after the Smart Vault setup!
-------------
Press any key to continue...
-------------
Simulating the recovery process by User
when Ledger's private-key is lost or
when Ledger is not responding to Vault Termination Requests
(Requires only User's private-key)
-------------
Press any key to start recovery...
-------------
User signs the Partially Signed
Provisional Tx received from Ledger
with his Private Key
-------------
Done
-------------
User's Private Key Generated Signature for Provisional Tx:
-------------
304402203edae9d078b06d430b911268239e382e6487837feb49aecf8a06eab33e2e374d02207052058ada6929d1a186e68007cd411e3161a2e3109455fdf167004ed91df42c01
-------------
Fully Signed Provisional Tx :
-------------
Unsigned Tx
{
    "ins": [
        {
            "tx_hash": "c54a1ba579a848e2ee4b247806669a652f8e1d48ed1d7be4b924ba42da6a2ba6",
            "tx_pos": 0,
            "script": "",
            "sequence": 4294967293
        }
    ],
    "outs": [
        {
            "value": 4999800000,
            "script": "0020541ed01418b0e53832fe512f2500221ef3b91c56b95c9fd252f064c4aea1dd59"
        }
    ],
    "version": 2,
    "locktime": 0
}
Signed Tx
{
    "ins": [
        {
            "tx_hash": "c54a1ba579a848e2ee4b247806669a652f8e1d48ed1d7be4b924ba42da6a2ba6",
            "tx_pos": 0,
            "script": "",
            "sequence": 4294967293
        }
    ],
    "outs": [
        {
            "value": 4999800000,
            "script": "0020541ed01418b0e53832fe512f2500221ef3b91c56b95c9fd252f064c4aea1dd59"
        }
    ],
    "version": 2,
    "locktime": 0,
    "witness": [
        {
            "number": 3,
            "scriptCode": "473044022025df99b16c7c1c4ea1a1c28edbc0ccd2b9161aca7c3392c5a28e70647d4ccdad02207c28955df71229cd7816406f51fdc1667c85c2ee6e66c27957e21276427ad4890147304402203edae9d078b06d430b911268239e382e6487837feb49aecf8a06eab33e2e374d02207052058ada6929d1a186e68007cd411e3161a2e3109455fdf167004ed91df42c014d21021da1d9b271dc48a81bd3047476404e996d183920c09d36e8388be5ec44e7d1b12103fe60f49d2b9346814cb1b48ecbdb7882678491c2ded756e453e182e1e6c07b1000547a547a527152ae"
        }
    ],
    "marker": 0,
    "flag": 1
}
02000000000101a62b6ada42ba24b9e47b1ded481d8e2f659a660678244beee248a879a51b4ac50000000000fdffffff01c0e4022a01000000220020541ed01418b0e53832fe512f2500221ef3b91c56b95c9fd252f064c4aea1dd5903473044022025df99b16c7c1c4ea1a1c28edbc0ccd2b9161aca7c3392c5a28e70647d4ccdad02207c28955df71229cd7816406f51fdc1667c85c2ee6e66c27957e21276427ad4890147304402203edae9d078b06d430b911268239e382e6487837feb49aecf8a06eab33e2e374d02207052058ada6929d1a186e68007cd411e3161a2e3109455fdf167004ed91df42c014d21021da1d9b271dc48a81bd3047476404e996d183920c09d36e8388be5ec44e7d1b12103fe60f49d2b9346814cb1b48ecbdb7882678491c2ded756e453e182e1e6c07b1000547a547a527152ae00000000
-------------
Checking Fully Signed Provisional Tx :
-------------
{
  "txid": "dce13878ee7af69bd6e3b5e2e2a00a72c2c4604b8bccadbb1e265821b04acd74",
  "hash": "1b9051b25e608ea8fb201cd280b6feb2fdff2f8b6c7ab2995f00544c1b17cf64",
  "version": 2,
  "size": 319,
  "vsize": 151,
  "weight": 601,
  "locktime": 0,
  "vin": [
    {
      "txid": "c54a1ba579a848e2ee4b247806669a652f8e1d48ed1d7be4b924ba42da6a2ba6",
      "vout": 0,
      "scriptSig": {
        "asm": "",
        "hex": ""
      },
      "txinwitness": [
        "3044022025df99b16c7c1c4ea1a1c28edbc0ccd2b9161aca7c3392c5a28e70647d4ccdad02207c28955df71229cd7816406f51fdc1667c85c2ee6e66c27957e21276427ad48901",
        "304402203edae9d078b06d430b911268239e382e6487837feb49aecf8a06eab33e2e374d02207052058ada6929d1a186e68007cd411e3161a2e3109455fdf167004ed91df42c01",
        "21021da1d9b271dc48a81bd3047476404e996d183920c09d36e8388be5ec44e7d1b12103fe60f49d2b9346814cb1b48ecbdb7882678491c2ded756e453e182e1e6c07b1000547a547a527152ae"
      ],
      "sequence": 4294967293
    }
  ],
  "vout": [
    {
      "value": 49.99800000,
      "n": 0,
      "scriptPubKey": {
        "asm": "0 541ed01418b0e53832fe512f2500221ef3b91c56b95c9fd252f064c4aea1dd59",
        "desc": "addr(bcrt1q2s0dq9qckrjnsvh72yhj2qpzrmemj8zkh9wfl5jj7pjvft4pm4vszdqu5h)#qswhcwsa",
        "hex": "0020541ed01418b0e53832fe512f2500221ef3b91c56b95c9fd252f064c4aea1dd59",
        "address": "bcrt1q2s0dq9qckrjnsvh72yhj2qpzrmemj8zkh9wfl5jj7pjvft4pm4vszdqu5h",
        "type": "witness_v0_scripthash"
      }
    }
  ]
}
-------------
Vaildate Fully Signed Provisional Tx
-------------
[
  {
    "txid": "dce13878ee7af69bd6e3b5e2e2a00a72c2c4604b8bccadbb1e265821b04acd74",
    "wtxid": "1b9051b25e608ea8fb201cd280b6feb2fdff2f8b6c7ab2995f00544c1b17cf64",
    "allowed": true,
    "vsize": 151,
    "fees": {
      "base": 0.00100000,
      "effective-feerate": 0.00662251,
      "effective-includes": [
        "1b9051b25e608ea8fb201cd280b6feb2fdff2f8b6c7ab2995f00544c1b17cf64"
      ]
    }
  }
]
-------------
Broadcast Fully Signed Provisional Tx
-------------
Done
-------------
Generating Block to confirm Provisional Tx
-------------
Done
-------------
Provisional Tx Block:
-------------
4448a13a723579a8ee3d6645f323a2da3a28a9221c34fc92c5bdb03629c57b00
-------------
Confirmed Provisional Tx
-------------
{
  "in_active_chain": true,
  "txid": "dce13878ee7af69bd6e3b5e2e2a00a72c2c4604b8bccadbb1e265821b04acd74",
  "hash": "1b9051b25e608ea8fb201cd280b6feb2fdff2f8b6c7ab2995f00544c1b17cf64",
  "version": 2,
  "size": 319,
  "vsize": 151,
  "weight": 601,
  "locktime": 0,
  "vin": [
    {
      "txid": "c54a1ba579a848e2ee4b247806669a652f8e1d48ed1d7be4b924ba42da6a2ba6",
      "vout": 0,
      "scriptSig": {
        "asm": "",
        "hex": ""
      },
      "txinwitness": [
        "3044022025df99b16c7c1c4ea1a1c28edbc0ccd2b9161aca7c3392c5a28e70647d4ccdad02207c28955df71229cd7816406f51fdc1667c85c2ee6e66c27957e21276427ad48901",
        "304402203edae9d078b06d430b911268239e382e6487837feb49aecf8a06eab33e2e374d02207052058ada6929d1a186e68007cd411e3161a2e3109455fdf167004ed91df42c01",
        "21021da1d9b271dc48a81bd3047476404e996d183920c09d36e8388be5ec44e7d1b12103fe60f49d2b9346814cb1b48ecbdb7882678491c2ded756e453e182e1e6c07b1000547a547a527152ae"
      ],
      "sequence": 4294967293
    }
  ],
  "vout": [
    {
      "value": 49.99800000,
      "n": 0,
      "scriptPubKey": {
        "asm": "0 541ed01418b0e53832fe512f2500221ef3b91c56b95c9fd252f064c4aea1dd59",
        "desc": "addr(bcrt1q2s0dq9qckrjnsvh72yhj2qpzrmemj8zkh9wfl5jj7pjvft4pm4vszdqu5h)#qswhcwsa",
        "hex": "0020541ed01418b0e53832fe512f2500221ef3b91c56b95c9fd252f064c4aea1dd59",
        "address": "bcrt1q2s0dq9qckrjnsvh72yhj2qpzrmemj8zkh9wfl5jj7pjvft4pm4vszdqu5h",
        "type": "witness_v0_scripthash"
      }
    }
  ],
  "hex": "02000000000101a62b6ada42ba24b9e47b1ded481d8e2f659a660678244beee248a879a51b4ac50000000000fdffffff01c0e4022a01000000220020541ed01418b0e53832fe512f2500221ef3b91c56b95c9fd252f064c4aea1dd5903473044022025df99b16c7c1c4ea1a1c28edbc0ccd2b9161aca7c3392c5a28e70647d4ccdad02207c28955df71229cd7816406f51fdc1667c85c2ee6e66c27957e21276427ad4890147304402203edae9d078b06d430b911268239e382e6487837feb49aecf8a06eab33e2e374d02207052058ada6929d1a186e68007cd411e3161a2e3109455fdf167004ed91df42c014d21021da1d9b271dc48a81bd3047476404e996d183920c09d36e8388be5ec44e7d1b12103fe60f49d2b9346814cb1b48ecbdb7882678491c2ded756e453e182e1e6c07b1000547a547a527152ae00000000",
  "blockhash": "4448a13a723579a8ee3d6645f323a2da3a28a9221c34fc92c5bdb03629c57b00",
  "confirmations": 1,
  "time": 1715371893,
  "blocktime": 1715371893
}
-------------
Simulating Recovery by User Using
***Option 1*** of Provisonal Tx
(Using just User Private Key)
-------------
Recovery Process - Start
-------------
User creates the Recovery Tx
-------------
Done
-------------
Unsigned Recovery Tx
-------------
020000000174cd4ab02158261ebbadcc8b4b60c4c2720aa0e2e2b5e3d69bf67aee7838e1dc0000000000e803000001205e012a010000001600144a8100c9276c8983ffbd335cdf1c8bc3e003231900000000
-------------
Checking Unsigned Recovery Tx
-------------
{
  "txid": "292d6b3d6515b548dcbd86d8d91860e30e4d074124780ad0a628bd7ed881bce9",
  "hash": "292d6b3d6515b548dcbd86d8d91860e30e4d074124780ad0a628bd7ed881bce9",
  "version": 2,
  "size": 82,
  "vsize": 82,
  "weight": 328,
  "locktime": 0,
  "vin": [
    {
      "txid": "dce13878ee7af69bd6e3b5e2e2a00a72c2c4604b8bccadbb1e265821b04acd74",
      "vout": 0,
      "scriptSig": {
        "asm": "",
        "hex": ""
      },
      "sequence": 1000
    }
  ],
  "vout": [
    {
      "value": 49.99700000,
      "n": 0,
      "scriptPubKey": {
        "asm": "0 4a8100c9276c8983ffbd335cdf1c8bc3e0032319",
        "desc": "addr(bcrt1qf2qspjf8djyc8laaxdwd78ytc0sqxgcew76xd2)#42d77xf8",
        "hex": "00144a8100c9276c8983ffbd335cdf1c8bc3e0032319",
        "address": "bcrt1qf2qspjf8djyc8laaxdwd78ytc0sqxgcew76xd2",
        "type": "witness_v0_keyhash"
      }
    }
  ]
}
-------------
User Signs the Recovery Tx
-------------
Original Tx:
{
    "ins": [
        {
            "tx_hash": "dce13878ee7af69bd6e3b5e2e2a00a72c2c4604b8bccadbb1e265821b04acd74",
            "tx_pos": 0,
            "script": "",
            "sequence": 1000,
            "value": 4999800000
        }
    ],
    "outs": [
        {
            "value": 4999700000,
            "script": "00144a8100c9276c8983ffbd335cdf1c8bc3e0032319"
        }
    ],
    "version": 2,
    "locktime": 0
}
Signature:
30440220766c224a166685d7928451bc001dd1de23c1eeb0a4e0cbc42aca0313bd89c8f5022045161f8e5420eb7fc8f5bd54c982ffcdf809ae8dfe74539329123d1f645b46f801
-------------
Recovery Tx - User's Signature
-------------
30440220766c224a166685d7928451bc001dd1de23c1eeb0a4e0cbc42aca0313bd89c8f5022045161f8e5420eb7fc8f5bd54c982ffcdf809ae8dfe74539329123d1f645b46f801
-------------
Fully Signed Recovery Tx:
-------------
Unsigned Tx
{
    "ins": [
        {
            "tx_hash": "dce13878ee7af69bd6e3b5e2e2a00a72c2c4604b8bccadbb1e265821b04acd74",
            "tx_pos": 0,
            "script": "",
            "sequence": 1000
        }
    ],
    "outs": [
        {
            "value": 4999700000,
            "script": "00144a8100c9276c8983ffbd335cdf1c8bc3e0032319"
        }
    ],
    "version": 2,
    "locktime": 0
}
Signed Tx
{
    "ins": [
        {
            "tx_hash": "dce13878ee7af69bd6e3b5e2e2a00a72c2c4604b8bccadbb1e265821b04acd74",
            "tx_pos": 0,
            "script": "",
            "sequence": 1000
        }
    ],
    "outs": [
        {
            "value": 4999700000,
            "script": "00144a8100c9276c8983ffbd335cdf1c8bc3e0032319"
        }
    ],
    "version": 2,
    "locktime": 0,
    "witness": [
        {
            "number": 3,
            "scriptCode": "4730440220766c224a166685d7928451bc001dd1de23c1eeb0a4e0cbc42aca0313bd89c8f5022045161f8e5420eb7fc8f5bd54c982ffcdf809ae8dfe74539329123d1f645b46f801007602881302e80321021da1d9b271dc48a81bd3047476404e996d183920c09d36e8388be5ec44e7d1b12103fe60f49d2b9346814cb1b48ecbdb7882678491c2ded756e453e182e1e6c07b1054795287637b757b757b7500547a547a527152ae67547a6375777b7cadb2755167777b757b7cadb275516868"
        }
    ],
    "marker": 0,
    "flag": 1
}
0200000000010174cd4ab02158261ebbadcc8b4b60c4c2720aa0e2e2b5e3d69bf67aee7838e1dc0000000000e803000001205e012a010000001600144a8100c9276c8983ffbd335cdf1c8bc3e0032319034730440220766c224a166685d7928451bc001dd1de23c1eeb0a4e0cbc42aca0313bd89c8f5022045161f8e5420eb7fc8f5bd54c982ffcdf809ae8dfe74539329123d1f645b46f801007602881302e80321021da1d9b271dc48a81bd3047476404e996d183920c09d36e8388be5ec44e7d1b12103fe60f49d2b9346814cb1b48ecbdb7882678491c2ded756e453e182e1e6c07b1054795287637b757b757b7500547a547a527152ae67547a6375777b7cadb2755167777b757b7cadb27551686800000000
-------------
Checking Fully Signed Recovery Tx:
-------------
{
  "txid": "292d6b3d6515b548dcbd86d8d91860e30e4d074124780ad0a628bd7ed881bce9",
  "hash": "8c623f2efb0dea79ef9cfeb04a3549dcd96d4ff27a06c50489d91e47c4873077",
  "version": 2,
  "size": 277,
  "vsize": 131,
  "weight": 523,
  "locktime": 0,
  "vin": [
    {
      "txid": "dce13878ee7af69bd6e3b5e2e2a00a72c2c4604b8bccadbb1e265821b04acd74",
      "vout": 0,
      "scriptSig": {
        "asm": "",
        "hex": ""
      },
      "txinwitness": [
        "30440220766c224a166685d7928451bc001dd1de23c1eeb0a4e0cbc42aca0313bd89c8f5022045161f8e5420eb7fc8f5bd54c982ffcdf809ae8dfe74539329123d1f645b46f801",
        "",
        "02881302e80321021da1d9b271dc48a81bd3047476404e996d183920c09d36e8388be5ec44e7d1b12103fe60f49d2b9346814cb1b48ecbdb7882678491c2ded756e453e182e1e6c07b1054795287637b757b757b7500547a547a527152ae67547a6375777b7cadb2755167777b757b7cadb275516868"
      ],
      "sequence": 1000
    }
  ],
  "vout": [
    {
      "value": 49.99700000,
      "n": 0,
      "scriptPubKey": {
        "asm": "0 4a8100c9276c8983ffbd335cdf1c8bc3e0032319",
        "desc": "addr(bcrt1qf2qspjf8djyc8laaxdwd78ytc0sqxgcew76xd2)#42d77xf8",
        "hex": "00144a8100c9276c8983ffbd335cdf1c8bc3e0032319",
        "address": "bcrt1qf2qspjf8djyc8laaxdwd78ytc0sqxgcew76xd2",
        "type": "witness_v0_keyhash"
      }
    }
  ]
}
-------------
Creating Blocks to satisfy Timelocks
-------------
Done
-------------
Vaildating Recovery Tx
-------------
[
  {
    "txid": "292d6b3d6515b548dcbd86d8d91860e30e4d074124780ad0a628bd7ed881bce9",
    "wtxid": "8c623f2efb0dea79ef9cfeb04a3549dcd96d4ff27a06c50489d91e47c4873077",
    "allowed": true,
    "vsize": 131,
    "fees": {
      "base": 0.00100000,
      "effective-feerate": 0.00763358,
      "effective-includes": [
        "8c623f2efb0dea79ef9cfeb04a3549dcd96d4ff27a06c50489d91e47c4873077"
      ]
    }
  }
]
-------------
Broadcasting Recovery Tx
-------------
Done
-------------
Generating Block to confirm Recovery Tx
-------------
Done
-------------
Recovery Tx Block ID:
-------------
5dabf0da9965d87d29c95bbdf85018d9f290489285f301a234ef56aeb0cb4de0
-------------
Confirmed Recovery Tx
-------------
{
  "in_active_chain": true,
  "txid": "292d6b3d6515b548dcbd86d8d91860e30e4d074124780ad0a628bd7ed881bce9",
  "hash": "8c623f2efb0dea79ef9cfeb04a3549dcd96d4ff27a06c50489d91e47c4873077",
  "version": 2,
  "size": 277,
  "vsize": 131,
  "weight": 523,
  "locktime": 0,
  "vin": [
    {
      "txid": "dce13878ee7af69bd6e3b5e2e2a00a72c2c4604b8bccadbb1e265821b04acd74",
      "vout": 0,
      "scriptSig": {
        "asm": "",
        "hex": ""
      },
      "txinwitness": [
        "30440220766c224a166685d7928451bc001dd1de23c1eeb0a4e0cbc42aca0313bd89c8f5022045161f8e5420eb7fc8f5bd54c982ffcdf809ae8dfe74539329123d1f645b46f801",
        "",
        "02881302e80321021da1d9b271dc48a81bd3047476404e996d183920c09d36e8388be5ec44e7d1b12103fe60f49d2b9346814cb1b48ecbdb7882678491c2ded756e453e182e1e6c07b1054795287637b757b757b7500547a547a527152ae67547a6375777b7cadb2755167777b757b7cadb275516868"
      ],
      "sequence": 1000
    }
  ],
  "vout": [
    {
      "value": 49.99700000,
      "n": 0,
      "scriptPubKey": {
        "asm": "0 4a8100c9276c8983ffbd335cdf1c8bc3e0032319",
        "desc": "addr(bcrt1qf2qspjf8djyc8laaxdwd78ytc0sqxgcew76xd2)#42d77xf8",
        "hex": "00144a8100c9276c8983ffbd335cdf1c8bc3e0032319",
        "address": "bcrt1qf2qspjf8djyc8laaxdwd78ytc0sqxgcew76xd2",
        "type": "witness_v0_keyhash"
      }
    }
  ],
  "hex": "0200000000010174cd4ab02158261ebbadcc8b4b60c4c2720aa0e2e2b5e3d69bf67aee7838e1dc0000000000e803000001205e012a010000001600144a8100c9276c8983ffbd335cdf1c8bc3e0032319034730440220766c224a166685d7928451bc001dd1de23c1eeb0a4e0cbc42aca0313bd89c8f5022045161f8e5420eb7fc8f5bd54c982ffcdf809ae8dfe74539329123d1f645b46f801007602881302e80321021da1d9b271dc48a81bd3047476404e996d183920c09d36e8388be5ec44e7d1b12103fe60f49d2b9346814cb1b48ecbdb7882678491c2ded756e453e182e1e6c07b1054795287637b757b757b7500547a547a527152ae67547a6375777b7cadb2755167777b757b7cadb27551686800000000",
  "blockhash": "5dabf0da9965d87d29c95bbdf85018d9f290489285f301a234ef56aeb0cb4de0",
  "confirmations": 1,
  "time": 1715372060,
  "blocktime": 1715372060
}
-------------
***Recovery Complete!***
-------------
-------------
Stopping Bitcoind
-------------
Bitcoin Core stopping
